:100000000C9436000C945E000C945E000C945E0020
:100010000C945E000C945E000C945E000C945E00E8
:100020000C945E000C945E000C945E000C945E00D8
:100030000C945E000C945E000C945E000C945E00C8
:100040000C94F0080C945E000C94BA090C945E00B9
:100050000C945E000C945E000C945E000C945E00A8
:100060000C945E000C945E005107030B11241FBE1C
:10007000CFEFD8E0DEBFCDBF11E0A0E0B1E0EEEC05
:10008000FEE102C005900D92A83AB107D9F712E03F
:10009000A8EAB1E001C01D92A536B107E1F710E072
:1000A000CCE6D0E004C02297FE010E942A0FC83699
:1000B000D107C9F70E94E9080C94650F0C94000061
:1000C0000F931F93CF93DF93689F8001699F100D5B
:1000D000789F100D1124C8010E947C00EC0100974C
:1000E00029F060E070E0A8010E94DF01CE01DF91FD
:1000F000CF911F910F910895CF93DF93BC01823070
:10010000910510F462E070E0A0916302B091640286
:10011000ED01E0E0F0E040E050E021C0888199810D
:100120008617970769F48A819B81309719F093832A
:10013000828304C09093640280936302FE0134C002
:100140006817790738F44115510519F08417950798
:1001500008F4AC01FE018A819B819C01E901209792
:10016000E9F641155105A9F1CA01861B970B0497C1
:1001700008F4BA01E0E0F0E02AC08D919C9111975B
:1001800084179507F9F46417750781F412968D9119
:100190009C911397309719F09383828304C09093B6
:1001A000640280936302FD0132964CC0CA01861B33
:1001B000970BFD01E80FF91F6193719302978D93DF
:1001C0009C9340C0FD01828193819C01D9011097CD
:1001D000A1F68091610290916202892B41F4809195
:1001E0006D0190916E019093620280936102409143
:1001F0006F01509170014115510541F44DB75EB743
:1002000080916B0190916C01481B590B2091610208
:1002100030916202CA01821B930B8617970780F008
:10022000AB014E5F5F4F8417950750F0420F531F8D
:100230005093620240936102F9016193719302C08D
:10024000E0E0F0E0CF01DF91CF910895CF93DF930D
:10025000009709F450C0EC0122971B821A82A091EA
:100260006302B0916402109709F140E050E0AC17CE
:10027000BD0708F1BB83AA83FE0121913191E20FF2
:10028000F31FAE17BF0779F48D919C911197280F3A
:10029000391F2E5F3F4F3983288312968D919C9191
:1002A00013979B838A834115510571F4D09364029F
:1002B000C093630220C012968D919C911397AD015B
:1002C000009711F0DC01D3CFFA01D383C2832191CF
:1002D0003191E20FF31FCE17DF0769F4888199810E
:1002E000280F391F2E5F3F4FFA01318320838A8107
:1002F0009B8193838283DF91CF910895A0E0B0E04A
:10030000E4E8F1E00C94360FEC01A880B980CA80D3
:10031000DB80A114B104C104D10441F484E2A82E0D
:1003200089EDB82E8BE5C82E87E0D82EC601B50121
:100330002DE133EF41E050E00E94F90E27EA31E46D
:1003400040E050E00E94A50E7B018C01C601B50182
:100350002DE133EF41E050E00E94F90ECA01B901EE
:100360002CEE34EF4FEF5FEF0E94A50E6E0D7F1D58
:10037000801F911F97FF04C06150704080409048DB
:10038000688379838A839B839B013F77C901CDB7BB
:10039000DEB7EAE00C94520F0E947E01089581E7D7
:1003A00091E00E947E010895A0E0B0E08093710189
:1003B00090937201A0937301B09374010895DC01CE
:1003C00001C06D9341505040E0F708954F925F9205
:1003D0006F927F928F929F92AF92BF92CF92DF9255
:1003E000EF92FF920F931F93CF93DF934A01DC01AB
:1003F00013962D913C911497FB013197EE0FFF1F3F
:10040000E20FF31F60807180F301408051805B0137
:10041000AA0CBB1CA20EB31E880C991CCC24DD2494
:100420000F2EF0E0EF2EF0E0FF2EF0E00F2FF0E0C7
:100430001F2FF02DC0E0D0E028C0D501ED91FC9138
:100440000480F581E02DE80DF91DA081B181AC0F8C
:10045000BD1FF301228133812C0F3D1F6D917D91D2
:100460008D919C91D9012D913D914D915C910E946E
:10047000420E9B01AC01C801B7010E948B0C7B01AD
:100480008C010894C11CD11C2496C414D504ACF270
:10049000B701C801DF91CF911F910F91FF90EF90AD
:1004A000DF90CF90BF90AF909F908F907F906F9094
:1004B0005F904F9008952F923F924F925F926F926C
:1004C0007F928F929F92AF92BF92CF92DF92EF92E4
:1004D000FF920F931F93DF93CF93CDB7DEB72A9789
:1004E0000FB6F894DEBF0FBECDBF5C016F83788777
:1004F00071E0872E912C1A821982A2C0C501B40125
:10050000A6010E94E601D5011D962D913D914D91C8
:100510005C9150970E943E0E87FF05C020E030E0BE
:1005200040E85FEB04C020E030E040E85FE3F30127
:1005300060817181828193810E948A0C1B012C0150
:10054000C601880F991F9C838B83EE24FF241A8693
:10055000198644C0ED81FE81AE0FBF1FED91FC9165
:100560000480F581E02D8B819C81E80FF91F0081CB
:100570001181A985BA850A0F1B1FD9011296ED9129
:10058000FC91139789859A85E80FF91FD501199673
:100590006D917D918D919C911C972081318142813B
:1005A00053810E94420EA20191010E94420E9B01C2
:1005B000AC01F80160817181828193810E948B0C72
:1005C000D8016D937D938D939C9313970894E11CB0
:1005D000F11CE985FA853496FA87E987F501A3814C
:1005E000B48189819A818A0F9B1FFC01208131810E
:1005F000F90180819181E816F9060CF4ABCF0894DB
:10060000C11CD11C84E090E0680E791ED5011396C0
:10061000ED91FC9114978D819E81E80FF91F019057
:10062000F081E02D80819181C816D9060CF466CF47
:100630000894811C911CA981BA811296BA83A9835E
:10064000F501818192818816990664F4C401880FAE
:10065000991F9E838D838F8198859C013901CC24BD
:10066000DD24D4CF2A960FB6F894DEBF0FBECDBFDF
:10067000CF91DF911F910F91FF90EF90DF90CF907E
:10068000BF90AF909F908F907F906F905F904F90B2
:100690003F902F9008958F929F92AF92BF92CF92EA
:1006A000DF92EF92FF920F931F93CF93DF936C0132
:1006B000DC0111960D911C911297015010404801D8
:1006C000880C991C3FC0F601C189D289C60161E03E
:1006D00070E0A7010E94E601D6011D962D913D9183
:1006E0004D915C9150970E943E0E87FF05C080E0BF
:1006F00090E0A0E8BFEB04C080E090E0A0E8BFE39A
:10070000CA0DDB1D88839983AA83BB830894E11CEF
:10071000F11CE4E0F0E0AE0EBF1ED6011396ED91A1
:10072000FC911497E80DF91D0190F081E02D808176
:100730009181E816F9063CF201501040EEEFFFEF10
:100740008E0E9F1E101611062CF4EE24FF24AA24F0
:10075000BB24E3CFDF91CF911F910F91FF90EF90DA
:10076000DF90CF90BF90AF909F908F900895FC0145
:100770008081882321F08EE492E00E94740B08951A
:100780000F931F93CF93DF93EC018B0160E071E037
:100790000E94B70340E050E020E030E015C0028046
:1007A000F381E02DE20FF31FD801A20FB31F8D914B
:1007B0009D910D90BC91A02D80839183A283B383E2
:1007C0004F5F5F4F2C5F3F4FED81FE8180819181B4
:1007D0004817590724F3CE010E944B0389899A894F
:1007E000DF91CF911F910F910895EF92FF920F9398
:1007F0001F93CF93DF93EC018B017A0166E171E0E7
:100800000E94B70340E050E020E030E015C00280D5
:10081000F381E02DE20FF31FD801A20FB31F8D91DA
:100820009D910D90BC91A02D80839183A283B38371
:100830004F5F5F4F2C5F3F4FED81FE818081918143
:100840004817590724F3CE01B7010E945B02DF91DC
:10085000CF911F910F91FF90EF9008952F923F92AB
:100860004F925F926F927F928F929F92AF92BF92C0
:10087000CF92DF92EF92FF920F931F93DF93CF936C
:1008800000D000D0CDB7DEB79C838B83DC018C9188
:10089000882309F4DFC02224332411E0612E712C57
:1008A000812C912CC8C08EE492E069E271E00E9434
:1008B000740B8EE492E0B401A3012AE030E00E94C0
:1008C000750C8EE492E060E371E00E94930B8EE47D
:1008D00092E063E371E00E94740B2301440C551C09
:1008E000EE24FF24870113C08EE492E0B801A70133
:1008F0002AE030E00E94750C8EE492E063E371E040
:100900000E94740B0894E11CF11C011D111DAB81A8
:10091000BC811396ED91FC911497E40DF51D0190A7
:10092000F081E02D80819181E816F906ECF28EE4E9
:1009300092E00E947C0BEE24FF2487015DC08EE4D0
:1009400092E0B801A7012AE030E00E94750C8EE425
:1009500092E065E371E00E94740BF701EE0FFF1F58
:10096000FA83E983AA24BB24CC24DD242BC0A40D64
:10097000B51DED91FC910480F581E02D89819A816E
:10098000E80FF91F0190F081E02DEC0DFD1D608155
:100990007181828193810E945B0DAB01BC018EE469
:1009A00092E02AE030E00E94750C8B819C8163E329
:1009B00071E00E94B7030894A11CB11CA4E0B0E050
:1009C000CA0EDB1EEB81FC81A381B481FD01E20D27
:1009D000F31D0190F081E02D80819181A816B90668
:1009E00034F28B819C8168E371E00E94B703089424
:1009F000E11CF11C011D111DAB81BC811396ED9111
:100A0000FC911497E40DF51D0190F081E02D80819B
:100A10009181E816F9060CF492CFCD0168E371E0FC
:100A20000E94B703E2E0F0E02E0E3F1E0894611C26
:100A3000711C811C911CAB81BC8111968D919C9184
:100A40001297681679060CF42ECFCD0168E371E099
:100A50000E94B7030F900F900F900F90CF91DF91EE
:100A60001F910F91FF90EF90DF90CF90BF90AF90CC
:100A70009F908F907F906F905F904F903F902F90BE
:100A800008956F927F928F929F92AF92BF92CF9272
:100A9000DF92EF92FF920F931F933A014B0158019F
:100AA00069010E94CF01AA2797FDA095BA2FBC012A
:100AB000CD010E948E0D20E03EEF4FEF56E40E94E4
:100AC000F30C7B018C01C601B501A40193010E94C6
:100AD0008A0C9B01AC01C801B7010E94420EA4011F
:100AE00093010E948B0C1F910F91FF90EF90DF906C
:100AF000CF90BF90AF909F908F907F906F90089510
:100B00002F923F924F925F926F927F928F929F921D
:100B1000AF92BF92CF92DF92EF92FF920F931F930B
:100B2000DF93CF9300D000D0CDB7DEB73C0191E08A
:100B3000892E912C442455245AC0A20DB31DED9149
:100B4000FC910480F581E02D89819A81E80FF91FDD
:100B5000E080F180AB81BC81EA0EFB1EC30140E066
:100B600050E060E07FEB00E010E020E03FE30E9417
:100B70004105F70160837183828393830894C11CCC
:100B8000D11C8B819C8104969C838B83F301A38170
:100B9000B481FD01E40DF51D0190F081E02D80810F
:100BA0009181C816D9064CF20894A11CB11CD3013E
:100BB0001396ED91FC911497E20DF31D0190F081D5
:100BC000E02D80819181A816B90654F4F501EE0F4D
:100BD000FF1FFA83E983CC24DD241C821B82D6CF3D
:100BE0000894811C911C82E090E0480E591ED301AC
:100BF00011968D919C9112978816990634F41401E0
:100C0000220C331CAA24BB24D2CF0F900F900F903C
:100C10000F90CF91DF911F910F91FF90EF90DF9098
:100C2000CF90BF90AF909F908F907F906F905F908C
:100C30004F903F902F9008952F923F924F925F9246
:100C40006F927F928F929F92AF92BF92CF92DF92DC
:100C5000EF92FF920F931F93DF93CF9300D000D0BA
:100C600000D0CDB7DEB79E838D834B01FA0118010A
:100C70002901C982DA82EB82FC82DC01AC921296F5
:100C80005C934E9311973197EE0FFF1FEE0FFF1FEE
:100C9000E60FF71F60817181828193810E94600D50
:100CA000DC01CB0164E070E00E946000ED81FE8118
:100CB000818B928B8181928162E070E00E94600062
:100CC000AD81BE8113968C93139714969C937CEF01
:100CD000A72E7FEFB72EA80CB91C882499249BC09F
:100CE0003401660C771C8F01060D171D86E090E01D
:100CF0000E947C00F80180839183D5011496ED90C9
:100D0000FD900D911C911797AD81BE811396ED91C9
:100D1000FC911497E60DF71DC080D180C801B70182
:100D20000E945B0DF60171836083C801B7010E94C8
:100D3000600DDC01CB0164E070E00E946000D60130
:100D400012968C93129713969C93AD81BE81139645
:100D5000ED91FC911497E60DF71D00811181F501CD
:100D6000648175818681978120E030E040E85FE30F
:100D70000E948B0C0E94600DDC01CB0162E070E0F0
:100D80000E946000D80114968C93149715969C933A
:100D900081149104C9F1EE24FF2426C0AD81BE81E7
:100DA0001396ED91FC911497E60DF71D0190F081DB
:100DB000E02DC701880F991F04811581080F191FA5
:100DC000F50160817181828193810E94600DDC0157
:100DD000CB0164E070E00E946000D8018C93119612
:100DE0009C930894E11CF11CB701882777FD80953E
:100DF000982F0E948E0DF5012481358146815781FF
:100E00000E94EF0C87FDCACF0894811C911C84E0DE
:100E100090E0A80EB91EAD81BE8111962D913C9136
:100E200012971396ED91FC911497821693060CF489
:100E300057CF8081918116969C938E931597215060
:100E40003040220F331FE20FF31F808191811896EB
:100E50009C938E931797FD01218632864386548694
:100E600089819A81AB81BC8185879687A787B08B62
:100E700026960FB6F894DEBF0FBECDBFCF91DF919F
:100E80001F910F91FF90EF90DF90CF90BF90AF90A8
:100E90009F908F907F906F905F904F903F902F909A
:100EA0000895AF92CF92DF92EF92FF920F931F932C
:100EB000DF93CF9300D0CDB7DEB7209161023091A0
:100EC0006202CE0101962115310519F48556924032
:100ED00002C0821B930B9A83898389819A819093A4
:100EE000AD018093AC018EEA91E065E771E042E0EC
:100EF00050E00DEC1CEC2CE43EE30F2EF0E0CF2E86
:100F0000F0E0DF2EF0E0EF2EF0E0FF2EF02DAA242F
:100F1000A3940E941C060F900F90CF91DF911F9118
:100F20000F91FF90EF90DF90CF90AF900895CF9208
:100F3000DF92EF92FF920F931F93CF93DF93182FBF
:100F4000092F6B018EE492E068E471E00E94740B5B
:100F5000212F302FC901EC0100E010E07601089448
:100F6000E108F1081AC0688179818A819B810E9419
:100F70005B0DAB01BC018EE492E02AE030E00E9400
:100F8000750C0E151F0531F08EE492E06AE471E0F5
:100F90000E94740B0F5F1F4F24960C151D051CF348
:100FA0008EE492E06DE471E00E94930BDF91CF91AB
:100FB0001F910F91FF90EF90DF90CF9008950F93C6
:100FC0001F93CF93DF93CDE7D1E00E94CF0164E67A
:100FD00070E00E94C40EC297AA2797FDA095BA2F71
:100FE000BC01CD010E948E0D6993799389939993E9
:100FF00081E0CD39D80749F760917D0170917E017C
:1010000080917F019091800120918501309186012E
:1010100040918701509188010E948B0C20918D0195
:1010200030918E0140918F01509190010E948B0C64
:10103000209195013091960140919701509198012E
:101040000E948B0C20E030E040E050E00E94EF0C6A
:1010500087FD05C080E090E0A0E8BFE304C080E029
:1010600090E0A0E8BFEB8093A8019093A901A09322
:10107000AA01B093AB018EEA91E06DE771E048EA16
:1010800051E00E94F5038EEA91E00E942E048EEA60
:1010900091E06DE771E00E94C0038C0160917901DD
:1010A00070917A0180917B0190917C010E945B0D8F
:1010B0009B01AC01C801B9010E94970764EF71E080
:1010C00080E090E00E943809DF91CF911F910F914D
:1010D00008950F931F93DF93CF9300D0CDB7DEB762
:1010E0004091AC015091AD012091610230916202BA
:1010F000CE0101962115310519F48556924002C0A2
:10110000821B930B9A83898389819A81481B590B8F
:101110005093AD014093AC018EE492E040E855E27B
:1011200060E070E00E94F70980E00E949C090E9444
:10113000D4018EEA91E00E9480058EE492E06FE493
:1011400071E00E94740B6091AC017091AD018EE46E
:1011500092E00E945D0C8EE492E06AE571E00E94EC
:10116000740B2091610230916202CE01019621152B
:10117000310519F48556924002C0821B930B9A8365
:10118000898369817A818EE492E00E94650C8EEAFF
:1011900091E00E942E048EEA91E06DE771E00E94DA
:1011A000C0038C016091790170917A0180917B017B
:1011B00090917C010E945B0D9B01AC01C801B901BB
:1011C0000E9497070F900F90CF91DF911F910F9181
:1011D00008950E9462090E9469080E94DF07FDCFFE
:1011E0001F920F920FB60F9211242F933F938F935C
:1011F0009F93AF93BF938091C5019091C601A09139
:10120000C701B091C8013091C9010196A11DB11D5E
:10121000232F2D5F2D3720F02D570196A11DB11DD5
:101220002093C9018093C5019093C601A093C70183
:10123000B093C8018091C1019091C201A091C301F6
:10124000B091C4010196A11DB11D8093C10190937D
:10125000C201A093C301B093C401BF91AF919F910C
:101260008F913F912F910F900FBE0F901F90189567
:10127000EF92FF920F931F937B018C018FB7F8942D
:101280004091C5015091C6016091C7017091C8019C
:101290008FBF2FB7F8948091C5019091C601A0919E
:1012A000C701B091C8012FBF841B950BA60BB70BCC
:1012B000E816F9060A071B0760F71F910F91FF90C8
:1012C000EF900895789484B5826084BD84B5816080
:1012D00084BD85B5826085BD85B5816085BDEEE63E
:1012E000F0E0808181608083E1E8F0E080818260CD
:1012F0008083808181608083E0E8F0E0808181608C
:101300008083E1EBF0E0808184608083E0EBF0E0BB
:10131000808181608083EAE7F0E08081846080835F
:101320008081826080838081816080838081806809
:1013300080831092C10008958F7090919D019295C5
:10134000990F990F907C982B90937C0080917A0054
:10135000806480937A0080917A0086FDFCCF209192
:10136000780040917900942F80E030E0282B392BD1
:10137000C90108951F920F920FB60F9211242F9357
:101380003F934F935F936F937F938F939F93AF930D
:10139000BF93EF93FF934091C600E0914A02F09112
:1013A0004B02CF01019660E870E00E94C40E9C01E0
:1013B00080914C0290914D022817390739F0E6537D
:1013C000FE4F408330934B0220934A02FF91EF91EE
:1013D000BF91AF919F918F917F916F915F914F914D
:1013E0003F912F910F900FBE0F901F9018955F9215
:1013F0006F927F928F929F92AF92BF92CF92DF9225
:10140000EF92FF920F931F93CF93DF93EC013A017A
:101410004B01413482E458078FE0680780E0780789
:101420000CF07FC060E874E88EE190E0A4019301C5
:101430000E94F90E2150304040405040CA01B9018D
:1014400022E030E040E050E00E94F90E59016A01CC
:10145000A6019501209530954095509594E0220F76
:10146000331F441F551F9A95D1F760E074E284EF53
:1014700090E00E94F90ECA01B9012FEF30E040E080
:1014800050E00E94A50EA40193010E94F90EC9012B
:1014900081509F4F181619061CF4522E5A9403C0FF
:1014A00055245394521A60E079E08DE390E0A40152
:1014B00093010E94F90E2150304040405040CA0133
:1014C000B90122E030E040E050E00E94F90E2095A2
:1014D00030954095509583E0220F331F441F551FD0
:1014E0008A95D1F760E074E284EF90E00E94F90EF3
:1014F000CA01B9012FEF30E040E050E00E94A50E94
:10150000A40193010E94F90EC90181509F4F181642
:1015100019061CF4822F815002C081E0821B8515C0
:1015200000F5E885F98581E090E00A8802C0880F1F
:10153000991F0A94E2F7808360E079E08DE390E000
:10154000A40193010E94F90E2150304040405040C8
:10155000CA01B90122E030E040E050E00E94F90EFB
:1015600004C0E885F98510829501EC81FD81308306
:10157000EE81FF812083EA85FB85208141E050E0F8
:10158000CA010E8402C0880F991F0A94E2F7282B23
:101590002083EA85FB852081CA010F8402C0880F61
:1015A000991F0A94E2F7282B2083EA85FB85808126
:1015B000088802C0440F551F0A94E2F7842B8083E9
:1015C000DF91CF911F910F91FF90EF90DF90CF901F
:1015D000BF90AF909F908F907F906F905F90089595
:1015E000FC01A085B18521898C9190E0022E02C07A
:1015F000959587950A94E2F780FFF6CF0484F585E8
:10160000E02D6083089582EA91E090934F028093E9
:101610004E028AEC91E0909351028093500285EC47
:1016200090E0909353028093520284EC90E0909368
:1016300055028093540280EC90E09093570280937F
:10164000560281EC90E0909359028093580286EC08
:1016500090E090935B0280935A0284E080935C0256
:1016600083E080935D0287E080935E0285E0809353
:101670005F0281E08093600208950F931F93CF93E0
:10168000DF938C01EB0109C02196D801ED91FC910B
:101690000190F081E02DC801099568816623A1F7CA
:1016A000DF91CF911F910F910895EF92FF920F93C9
:1016B0001F93CF93DF938C017B01EA010CC0D7010C
:1016C0006D917D01D801ED91FC910190F081E02DAB
:1016D000C80109952197209791F7DF91CF911F912C
:1016E0000F91FF90EF900895DC01ED91FC91028045
:1016F000F381E02D099508950F931F938C01DC0170
:10170000ED91FC910190F081E02D6DE00995D801FB
:10171000ED91FC910190F081E02DC8016AE00995FE
:101720001F910F9108950F931F938C010E94740BCA
:10173000C8010E947C0B1F910F9108952F923F9238
:101740004F925F926F927F928F929F92AF92BF92D1
:10175000CF92DF92EF92FF920F931F93DF93CF937D
:10176000CDB7DEB7A0970FB6F894DEBF0FBECDBFE2
:101770001C016A017B01411551056105710549F4A0
:10178000DC01ED91FC910190F081E02D60E3099581
:1017900054C0882499245401422E55246624772469
:1017A00001E010E00C0F1D1F080D191DC701B60147
:1017B000A30192010E94D70EF80160830894811C56
:1017C000911CA11CB11CC701B601A30192010E948A
:1017D000D70EC901DA016C017D01C114D104E10405
:1017E000F104F1F681E0E82EF12CEC0EFD1EE80C80
:1017F000F91C3E010894611C711CD501C4010197BC
:10180000A109B1096C01C818D90814C0F601EE0D80
:10181000FF1D60816A3010F4605D01C0695CD10118
:10182000ED91FC910190F081E02DC10109950894A2
:10183000E108F1086E147F0449F7A0960FB6F894FA
:10184000DEBF0FBECDBFCF91DF911F910F91FF90F3
:10185000EF90DF90CF90BF90AF909F908F907F9050
:101860006F905F904F903F902F900895EF92FF926E
:101870000F931F93CF93DF93EC017A018B0177FFD6
:101880000FC0E881F9810190F081E02D6DE20995AA
:1018900010950095F094E094E11CF11C011D111DC0
:1018A000CE01B801A7012AE00E949E0BDF91CF91E3
:1018B0001F910F91FF90EF900895AB01662757FDA0
:1018C0006095762F0E94360C08950F931F938C011C
:1018D000AB01662757FD6095762F0E94360CC80134
:1018E0000E947C0B1F910F910895DC012115310599
:1018F00041F4ED91FC910190F081E02D642F099568
:1019000008952A30310519F40E94360C08950E947A
:101910009E0B08955058BB27AA270ED075C166D1DB
:1019200030F06BD120F031F49F3F11F41EF45BC115
:101930000EF4E095E7FB51C1E92F77D180F3BA1798
:10194000620773078407950718F071F49EF58FC13D
:101950000EF4E0950B2EBA2FA02D0B01B9019001CA
:101960000C01CA01A0011124FF27591B99F0593F0E
:1019700050F4503E68F11A16F040A22F232F342F56
:101980004427585FF3CF469537952795A795F040A4
:101990005395C9F77EF41F16BA0B620B730B840BB9
:1019A000BAF09150A1F0FF0FBB1F661F771F881F71
:1019B000C2F70EC0BA0F621F731F841F48F48795C9
:1019C00077956795B795F7959E3F08F0B3CF9395B8
:1019D000880F08F09927EE0F979587950895D9D02D
:1019E00008F481E008950CD00FC107D140F0FED07B
:1019F00030F021F45F3F19F0F0C0511139C1F3C04C
:101A000014D198F39923C9F35523B1F3951B550BC2
:101A1000BB27AA2762177307840738F09F5F5F4FC1
:101A2000220F331F441FAA1FA9F333D00E2E3AF002
:101A3000E0E830D091505040E695001CCAF729D01C
:101A4000FE2F27D0660F771F881FBB1F261737076B
:101A50004807AB07B0E809F0BB0B802DBF01FF279B
:101A600093585F4F2AF09E3F510568F0B6C000C101
:101A70005F3FECF3983EDCF3869577956795B795D5
:101A8000F7959F5FC9F7880F911D9695879597F9F0
:101A90000895E1E0660F771F881FBB1F6217730769
:101AA0008407BA0720F0621B730B840BBA0BEE1F7E
:101AB00088F7E095089504D06894B111D9C00895CD
:101AC000BCD088F09F5790F0B92F9927B751A0F05C
:101AD000D1F0660F771F881F991F1AF0BA95C9F7C2
:101AE00012C0B13081F0C3D0B1E00895C0C0672FFB
:101AF000782F8827B85F39F0B93FCCF38695779572
:101B00006795B395D9F73EF490958095709561955A
:101B10007F4F8F4F9F4F0895E89409C097FB3EF485
:101B200090958095709561957F4F8F4F9F4F99232A
:101B3000A9F0F92F96E9BB279395F69587957795A8
:101B40006795B795F111F8CFFAF4BB0F11F460FF68
:101B50001BC06F5F7F4F8F4F9F4F16C0882311F0C0
:101B600096E911C0772321F09EE8872F762F05C0D4
:101B7000662371F096E8862F70E060E02AF09A956F
:101B8000660F771F881FDAF7880F9695879597F964
:101B90000895990F0008550FAA0BE0E8FEEF1616FE
:101BA0001706E807F907C0F012161306E407F50751
:101BB00098F0621B730B840B950B39F40A2661F0C5
:101BC000232B242B252B21F408950A2609F4A14068
:101BD000A6958FEF811D811D089597F99F6780E875
:101BE00070E060E008959FEF80EC089500240A946F
:101BF0001616170618060906089500240A941216E8
:101C00001306140605060895092E0394000C11F41A
:101C1000882352F0BB0F40F4BF2B11F460FF04C0C7
:101C20006F5F7F4F8F4F9F4F089557FD9058440F20
:101C3000551F59F05F3F71F04795880F97FB991F2B
:101C400061F09F3F79F087950895121613061406E8
:101C5000551FF2CF4695F1DF08C016161706180675
:101C6000991FF1CF86957105610508940895E89450
:101C7000BB2766277727CB0197F908958ADF08F4F9
:101C80008FEF08950BD0C0CFB1DF28F0B6DF18F08A
:101C9000952309F0A2CFA7CF1124EACFC6DFA0F386
:101CA000959FD1F3950F50E0551F629FF001729FF1
:101CB000BB27F00DB11D639FAA27F00DB11DAA1F10
:101CC000649F6627B00DA11D661F829F2227B00D5D
:101CD000A11D621F739FB00DA11D621F839FA00DE8
:101CE000611D221F749F3327A00D611D231F849F38
:101CF000600D211D822F762F6A2F11249F5750408F
:101D00008AF0E1F088234AF0EE0FFF1FBB1F661F29
:101D1000771F881F91505040A9F79E3F510570F0E2
:101D20005CCFA6CF5F3FECF3983EDCF386957795CA
:101D30006795B795F795E7959F5FC1F7FE2B880FDD
:101D4000911D9695879597F90895629FD001739F8D
:101D5000F001829FE00DF11D649FE00DF11D929F47
:101D6000F00D839FF00D749FF00D659FF00D992786
:101D7000729FB00DE11DF91F639FB00DE11DF91FAA
:101D8000BD01CF011124089597FB092E07260AD023
:101D900077FD04D049D006D000201AF470956195E3
:101DA0007F4F0895F6F7909581959F4F0895A1E292
:101DB0001A2EAA1BBB1BFD010DC0AA1FBB1FEE1FC5
:101DC000FF1FA217B307E407F50720F0A21BB30B10
:101DD000E40BF50B661F771F881F991F1A9469F78C
:101DE00060957095809590959B01AC01BD01CF01E8
:101DF000089597FB092E05260ED057FD04D0D7DF96
:101E00000AD0001C38F450954095309521953F4FED
:101E10004F4F5F4F0895F6F79095809570956195B7
:101E20007F4F8F4F9F4F0895AA1BBB1B51E107C0E7
:101E3000AA1FBB1FA617B70710F0A61BB70B881F5A
:101E4000991F5A95A9F780959095BC01CD010895E9
:101E5000EE0FFF1F0590F491E02D09942F923F9211
:101E60004F925F926F927F928F929F92AF92BF92AA
:101E7000CF92DF92EF92FF920F931F93CF93DF9356
:101E8000CDB7DEB7CA1BDB0B0FB6F894DEBF0FBEB3
:101E9000CDBF09942A88398848885F846E847D8400
:101EA0008C849B84AA84B984C884DF80EE80FD8002
:101EB0000C811B81AA81B981CE0FD11D0FB6F89478
:0E1EC000DEBF0FBECDBFED010895F894FFCF39
:101ECE004E6575726F6475696E6F3A3A73696D75AA
:101EDE006C6174650A004E6575726F6475696E6F1C
:101EEE003A3A747261696E0A004C617965725B00F0
:101EFE005D3A0009003A09000A0046726565206DD8
:101F0E00656D6F72793A20005B002C20005D004EEB
:101F1E0065742073697A653A2000202F2046726519
:101F2E0065206D656D6F72793A20002000650200A4
:101F3E000001000000000000410000803F00008012
:101F4E003F000080BF0000803F000080BF00008087
:101F5E00BF0000803F000080BF0000803F010000F6
:081F6E000000F00A3D0B550BC9
:00000001FF
